:1000000039C05EC045C045C043C042C041C040C0C9
:100010003FC03EC0180800000000B90008081808DA
:1000200009006F0009090000000025000D0D000007
:1000300000004A001810000000000301181008001A
:1000400009006F000C040000000025000D050000F1
:1000500000004A0005050500250000000000000022
:10006000000000001C0C19110100250014041111DE
:100070000100000011241FBECFE9CDBF20E0A0E6A3
:10008000B0E001C01D92A836B207E1F78DD0C8C11B
:10009000B7CF1F920F920FB60F9211248F939F9399
:1000A000809166009091670001969093670080931D
:1000B00066009F918F910F900FBE0F901F90189523
:1000C0001F920F920FB60F9211248F938BB78F7BD5
:1000D0008BBF8AB78F7B8ABF8091600010926700C8
:1000E00010926600109265008F73836080936000A9
:1000F0008F910F900FBE0F901F90189517BA18BAD6
:1001000090E023E0880F991F2A95E1F79C012C5E6F
:100110003F4F611103C0E2E0F0E002C0E0E0F0E038
:10012000E20FF31FE491ED7FE7BBFC01662319F0BA
:10013000EB5EFF4F02C0E95EFF4FE491E260E8BB77
:10014000089590E023E0880F991F2A95E1F7FC01BC
:10015000E85EFF4F459154914115510539F02091CA
:10016000660030916700240F351F02C020E030E0A8
:1001700030936400209363006623A9F0FC01E65EDF
:10018000FF4F259134912115310539F0809166009A
:1001900090916700820F931F02C080E090E09093DF
:1001A000620080936100089585B7877E85BF85B71B
:1001B000806285BF85E083BF89B7826089BF109266
:1001C000670010926600809160008C7F109265003D
:1001D00025E030E0309369002093680084628093CA
:1001E000600078941AE000E2CDE4D0E080E1F82EDF
:1001F000809166009091670097FF34C080916600FF
:10020000909167008F5F9F4790936700809366008F
:100210008091630090916400009779F08F5F9F4711
:1002200090936400809363008091680090916900CE
:10023000019790936900809368008091610090918C
:100240006200009779F08F5F9F47909362008093E0
:100250006100809168009091690001969093690017
:1002600080936800B1991AC0909165009F5F909348
:1002700065002091680030916900291B3109309395
:10028000690020936800953048F0809160009532B5
:1002900010F4806401C0806C8093600080916300E2
:1002A000909164000097A1F0209166003091670062
:1002B0008217930768F46091600060276093600084
:1002C00065FB662760F9812F19DF60E0812F39DF38
:1002D0008091610090916200009759F02091660032
:1002E000309167008217930720F48091600085FDAC
:1002F00091C080916000982F9370923009F450C0A3
:10030000933019F0913031F546C085B7877E85BFAF
:100310008091600087FF13C0193089F484FD02C00A
:1003200010E001C018E08460809360008091680054
:1003300090916900812B9093690080936800B19B34
:100340004FC08091600087FF02C08C7F1CC08E7FF1
:10035000826019C090916500992309F441C087FF1C
:1003600005C08D7F85608093600019E0B19B38C027
:100370008091600086FF09C08F2584FD02C010E0D7
:1003800001C018E084608093600010926500809145
:1003900060008F7311C0B19B23C08E7F82600CC040
:1003A000B1990DC085B7877E85BFD0936900C09392
:1003B00068008091600083608093600011C010929B
:1003C00065008F7384608093600085B7877E80614D
:1003D00085BF8BB780648BBF8AB78F7B8ABF19E0DC
:1003E0008091600082FF0AC08B7F806280936000F2
:1003F00061E0812F83DE61E0812FA3DE80916800C0
:10040000909169008B5791099093670080936600E3
:100410008895EECE1F5F177084608093600069CF6F
:04042000F894FFCF7E
:00000001FF
