:1000000039C06AC045C086C043C042C041C040C07C
:100010003FC03EC0180800000000B90008081808DA
:1000200009006F0009090000000025000D0D000007
:1000300000004A001810000000000301181008001A
:1000400009006F000C040000000025000D050000F1
:1000500000004A0005050500250000000000000022
:10006000000000001C0C19110100250014041111DE
:100070000100000011241FBECFE9CDBF20E0A0E6A3
:10008000B0E001C01D92A436B207E1F75AD078C1A2
:10009000B7CF17BA18BA90E023E0880F991F2A95B6
:1000A000E1F79C012C5E3F4F611103C0E2E0F0E0FC
:1000B00002C0E0E0F0E0E20FF31FE491ED7FE7BB68
:1000C000FC01662319F0EB5EFF4F02C0E95EFF4FB3
:1000D000E491E260E8BB08951F920F920FB60F9271
:1000E00011248F938BB78F7B8BBF8AB78F7B8ABF8F
:1000F0008091610010926300109262001092600083
:100100008F738360809361008F910F900FBE0F906B
:100110001F9018951F920F920FB60F9211248F9374
:100120009F93809162009091630001969093630089
:10013000809362009F918F910F900FBE0F901F9040
:10014000189585B7877E85BF85B7806285BF85E0B6
:1001500083BF89B7826089BF1092630010926200EA
:10016000809161008C7F10926000846280936100B6
:100170007894CAE0D0E240E1F42E80916200909140
:10018000630097FF14C080916200909163008F5FBD
:100190009F4790936300809362002115310511F011
:1001A0002F5F3F470115110511F00F5F1F47B199F0
:1001B00010C0909160009F5F90936000953048F070
:1001C00080916100953210F4806401C0806C80934E
:1001D00061002115310519F420E030E024C0809140
:1001E00062009091630028173907E8F4609161007C
:1001F0006D276093610065FB662760F98C2F49DFEE
:10020000EC2FF0E033E0EE0FFF1F3A95E1F7E85EE8
:10021000FF4F859194910097F9F2209162003091FF
:100220006300280F391F0115110559F080916200F4
:10023000909163000817190720F48091610085FDF3
:1002400099C080916100982F9370923009F446C054
:10025000933019F09130E9F43CC085B7877E85BFB3
:100260008091610087FF0AC0C93041F484FD02C05B
:10027000C0E001C0C8E0846080936100B19B4AC0C7
:100280008091610087FF02C08C7F1BC08E7F8260DF
:1002900018C0909160009923E9F187FF05C08D7F18
:1002A000856080936100C9E0B19B34C0809161009A
:1002B00086FF09C08F2584FD02C0C0E001C0C8E0F0
:1002C00084608093610010926000809161008F7360
:1002D0000DC0B19B1FC08E7F826008C0B19909C05C
:1002E00085B7877E85BF80916100836080936100C0
:1002F00011C0109260008F7384608093610085B795
:10030000877E806185BF8BB780648BBF8AB78F7B08
:100310008ABFC9E08091610082FF2AC08B7F806222
:100320008093610061E08C2FB4DE8C2F90E023E09D
:10033000880F991F2A95E1F7FC01E85EFF4F259190
:1003400034912115310531F04091620050916300E4
:10035000240F351FFC01E65EFF4F05911491011536
:10036000110531F08091620090916300080F191F10
:10037000889503CFCF5FC77084608093610061CFA1
:04038000F894FFCF1F
:00000001FF
