:1000000039C067C045C045C043C042C041C040C0C0
:100010003FC03EC0180800000000B90008081808DA
:1000200009006F0009090000000025000D0D000007
:1000300000004A001810000000000301181008001A
:1000400009006F000C040000000025000D050000F1
:1000500000004A0005050500250000000000000022
:10006000000000001C0C19110100250014041111DE
:100070000100000011241FBECFE9CDBF20E0A0E6A3
:10008000B0E001C01D92A836B207E1F76DD0FEC303
:10009000B7CF1F920F9200905F000F9211248F93A1
:1000A0009F93CF93DF93CDB7DD2780916000909130
:1000B0006100019690936100809360000000DF91E1
:1000C000CF919F918F910F9000925F000F901F90A2
:1000D00018951F920F9200905F000F9211242F939A
:1000E0003F938F939F93EF93FF93CF93DF93CDB77E
:1000F000DD278BE590E02BE530E0F90120812F7BB7
:10010000FC0120838AE590E02AE530E0F9012081B6
:100110002F7BFC01208380916700826080936700C1
:100120008091670081608093670010926100109257
:10013000600010926200809167008F7B809367005F
:10014000809167008F77809367000000DF91CF91E7
:10015000FF91EF919F918F913F912F910F9000927E
:100160005F000F901F901895CF93DF931F92CDB72C
:10017000DD2785E590E025E530E0F9012081277E47
:10018000FC01208385E590E025E530E0F901208140
:100190002062FC01208364D3109261001092600001
:1001A000809167008D7F80936700809167008E7FCC
:1001B000809367008091670080628093670010924F
:1001C000620085E090E090936900809368008AE087
:1001D0008983809167008460809367007894809120
:1001E000600090916100892F881F8827881F8823CD
:1001F000E1F180916000909161008F5F9F47909343
:100200006100809360008091630090916400892B6D
:1002100099F080916300909164008F5F9F47909365
:100220006400809363008091680090916900019759
:1002300090936900809368008091650090916600BA
:10024000892B99F080916500909166008F5F9F47A0
:10025000909366008093650080916800909169009A
:100260000196909369008093680086E390E0FC011A
:100270008081882F90E08270992721E0892B09F0F6
:1002800020E0222339F1809162008F5F8093620029
:10029000209168003091690080916200882F90E081
:1002A000A901481B590BCA0190936900809368000B
:1002B00080916200853028F080916700806480938F
:1002C000670080916200853228F080916700806825
:1002D000809367008091630090916400892B29F1DD
:1002E00020916000309161008091630090916400E2
:1002F00041E08217930708F040E04423B1F0909169
:10030000670080E289278093670080916700882FCB
:1003100090E08072992721E0892B09F420E0622F78
:100320008981B1D160E0898120D28091650090916E
:100330006600892B19F12091600030916100809155
:100340006500909166008217930750F480916700D2
:10035000882F90E080729927892B11F081E001C0ED
:1003600080E0882359F089818F5F89838981877034
:100370008983809167008460809367008091670023
:10038000882F90E0837099278130910509F4C6C0C9
:100390008230910524F4892B09F46BC031C182307D
:1003A000910509F4D5C0039709F02AC185E590E0CD
:1003B00025E530E0F9012081277EFC012083809132
:1003C000670088230CF589818930F1F480916700FA
:1003D000882F90E080719927892B11F088E001C067
:1003E00080E08983809167008460809367008981C1
:1003F000282F30E08091680090916900822B932B28
:10040000909369008093680086E390E0FC0180810E
:10041000882F90E08270992721E0892B09F420E051
:10042000222309F4FDC08091670088235CF4809149
:1004300067008D7F80936700809167008E7F809337
:1004400067000AC080916700826080936700809196
:1004500067008E7F80936700109262008091670032
:100460008F7B80936700809167008F778093670010
:10047000D7C080916200882309F4D4C080916700BE
:1004800088238CF489E0898380916700846080935D
:100490006700809167008D7F80936700809167007F
:1004A00081608093670086E390E0FC018081882F63
:1004B00090E08270992721E0892B09F420E0222323
:1004C00009F4B0C080916700882F90E0807499276C
:1004D000892BB9F09091670080E1892780936700AC
:1004E00080916700882F90E080719927892B11F007
:1004F00088E001C080E089838091670084608093F8
:10050000670010926200809167008F7B8093670084
:10051000809167008F778093670084C086E390E0C6
:10052000FC018081882F90E08270992721E0892B3F
:1005300009F420E0222309F477C0809167008260EB
:1005400080936700809167008E7F809367006CC006
:1005500086E390E0FC018081882F90E082709927EB
:1005600021E0892B09F020E02223D1F085E590E0FD
:1005700025E530E0F9012081277EFC0120838DE410
:1005800090E090936900809368008091670082609A
:10059000809367008091670081608093670045C009
:1005A00010926200809167008F778093670080913E
:1005B00067008F7B8093670089E089838091670063
:1005C00084608093670085E590E025E530E0F901DF
:1005D0002081277E2061FC0120838BE590E02BE5C4
:1005E00030E0F90120812064FC0120838AE590E05D
:1005F0002AE530E0F90120812F7BFC01208315C022
:100600008BE08983809168009091690090936100EC
:10061000809360008091670084608093670005C0CC
:10062000000003C0000001C0000080916700882F17
:1006300090E084709927892BD1F0809167008B7F9F
:10064000809367008091670080628093670080914B
:100650006700882F90E08072992721E0892B09F4A8
:1006600020E0622F89810FD061E089817ED0809166
:100670006800909169008B57910990936100809375
:1006800060008895ACCDCF93DF93CDB7DD27CC50FC
:10069000CDBF8B876C8787E390E0FC01108288E3F5
:1006A00090E0FC0110828B85882F90E0880F991FC5
:1006B000880F991F880F991F9C012C5E3F4F8C85D6
:1006C000882319F080E090E002C082E090E0820F81
:1006D000931F9A83898389819A81FC0184918B83FA
:1006E0008B818C838C818D7F8C8387E390E02C8140
:1006F000FC0120838C858823A9F08B85882F90E0CE
:10070000880F991F880F991F880F991F01968C5E7B
:100710009F4F9E838D838D819E81FC0184918F8369
:100720008F8114C08B85882F90E0880F991F880FC8
:10073000991F880F991F03968C5E9F4F9987888712
:1007400088859985FC0184918A878A858C838C8130
:1007500082608C8388E390E02C81FC012083000080
:10076000C45FCDBFDF91CF910895CF93DF93CDB715
:10077000DD27CA50CDBF89876A878985882F90E099
:10078000880F991F880F991F880F991F04968C5EF8
:100790009F4F9A83898389819A81FC0125913491A5
:1007A000CF013C832B839A8389838B819C81909397
:1007B0006400809363008091630090916400892BB2
:1007C00059F0209163003091640080916000909115
:1007D0006100820F931F02C080E090E0909364005C
:1007E000809363008A858823A9F18985882F90E00A
:1007F000880F991F880F991F880F991F06968C5E86
:100800009F4F9E838D838D819E81FC012591349124
:10081000CF0138872F839E838D838F819885909316
:100820006600809365008091650090916600892B39
:1008300059F02091650030916600809160009091A0
:100840006100820F931F02C080E090E090936600E9
:10085000809365000000C65FCDBFDF91CF91089502
:10086000CF93DF93CDB7DD2783E590E025E0FC0152
:10087000208389E590E029E530E0F90120812260BC
:10088000FC0120830000DF91CF910895F894FFCF01
:00000001FF
