:1000000009C016C015C014C013C012C011C010C062
:100010000FC00EC011241FBECFE9CDBF20E0A0E667
:10002000B0E001C01D92AA36B207E1F702D06EC05F
:10003000E7CFCF93DF9300D0CDB7DD271A821982A7
:1000400089819A81049778F48981805D282F89813C
:100050009A81805A9F4FFC01208389819A81019661
:100060009A838983EDCF83E090E0805A9F4FFC0113
:100070008081082E000C990B07D080E090E0CE5FC5
:10008000CDBFDF91CF9108956091660070916700B8
:1000900001D008950F931F93CF93DF93FB0123812A
:1000A00021FD03C08FEF9FEF2CC022FF16C04681B9
:1000B0005781248135814217530744F4A081B181CF
:1000C0009D012F5F3F4F318320838C9326813781A1
:1000D0002F5F3F4F3783268314C08B01EC01FB0158
:1000E0000084F185E02D0995892BE1F6D80116965B
:1000F0008D919C911797019617969C938E931697C6
:10010000CE01DF91CF911F910F910895F894FFCF09
:00000001FF
