:1000000009C016C015C014C013C012C011C010C062
:100010000FC00EC011241FBECFE9CDBF20E0A0E667
:10002000B0E001C01D92A636B207E1F702D075C05C
:10003000E7CFCF93DF93CDB7DD27C650CDBF1A8270
:10004000198289819A81049790F48981805D482F73
:100050009E012D5F3F4F89819A81820F931FFC0182
:10006000408389819A8101969A838983EACF83E0CC
:1000700090E09E012D5F3F4F820F931FFC01808116
:10008000082E000C990B07D080E090E0CA5FCDBF2E
:10009000DF91CF910895609162007091630001D06B
:1000A00008950F931F93CF93DF93FB01238121FDCD
:1000B00003C08FEF9FEF2CC022FF16C046815781EF
:1000C000248135814217530744F4A081B1819D01F9
:1000D0002F5F3F4F318320838C93268137812F5FA1
:1000E0003F4F3783268314C08B01EC01FB01008452
:1000F000F185E02D0995892BE1F6D80116968D91B1
:100100009C911797019617969C938E931697CE0104
:0E011000DF91CF911F910F910895F894FFCFCA
:00000001FF
